:030000000202FFFA
:0C02FF00787FE4F6D8FD75811302023907
:0B01B20075A0097F007E007D807C3F6F
:0801BD008F0B8E0A8D098C08DE
:1001C500E4F50FF50EF50DF50CAF0BAE0AAD09AC68
:1001D50008AB0FAA0EA90DA80C1200FB501CAF0FFF
:1001E500AE0EAD0DAC0CE4FBFA7980783F12000A37
:1001F5008F0F8E0E8D0D8C0C80CFE4F513F512F557
:1002050011F510E4FFFE7D7A7C44AB13AA12A91107
:10021500A8101200FB501CAF13AE12AD11AC10E4C8
:10022500FBFA7980783F12000A8F138E128D118C9C
:030235001080D066
:0102380022A3
:10029400D2907F007E407D9C7C461201BDC290C2FC
:1002A40091D2921201B275A00A1201B575A006127C
:1002B40001B575A0051201B51201B275A00A7F003F
:0902C4007E007D807C3F0201BD3B
:1002CD00D2907F007E407D9C7C461201BDC2907510
:1002DD00A00A1201B51201B275A0051201B575A0E3
:1002ED00061201B575A00A1201B51201B2C292D261
:0202FD0091224C
:10023900E4F5A0F590F5B0D29130B2257F007E406B
:100249007D1C7C461201BD30B21712029430B3FDF9
:100259007F007E407D9C7C451201BD20B3FD1202CA
:10026900CD30B3D57F007E407D1C7C461201BD3068
:10027900B3C712029430B2FD7F007E407D9C7C455D
:0B0289001201BD20B2FD1202CD80AEBC
:1000030002019DE86480F8E933E83360110460F08D
:10001300ED33EC337009E8FCE9FDEAFEEBFF220463
:1000230060DED3EB9FEA9EE99DE8C2E78CF0C2F75E
:1000330095F0400CE8CCF8E9CDF9EACEFAEBCFFB2A
:1000430012016885D0F05804700320D5B3E804701A
:10005300075002B2D50201A792D5EC0460F7E4CCB5
:10006300C0E0C398F8603B94186008400DD0E0FBF3
:1000730002017FE4FBFAC9FC8028E830E406E4C906
:10008300FBE4CAFCE830E305E4C9CACBFCE8540747
:100093006010F8C3E913F9EA13FAEB13FBEC13FC52
:1000A300D8F130F52FC3E49CFCEF9BFFEE9AFEEDF5
:1000B30099FDD0E0FBEF4E4D4C701222DB030201A1
:1000C300A4EC2CFCEF33FFEE33FEED33FDED30E714
:1000D300EB02017FEF2BFFEE3AFEED39FDD0E0FBA3
:1000E30050130BBB00030201A7ED13FDEE13FEEF4C
:0800F30013FFEC13FC02017F76
:1000FB0074F8CC6480CCC86480C8F582046043C3B8
:10010B00EB9FF5F0EA9E42F0E99D42F0E89C45F04A
:10011B0060305018E5825FFFE582F42B5582FB506F
:10012B00210ABA001D09B90019088016E5825BFB8C
:10013B00E582F42F5582FF50090EBE00050DBD0060
:10014B00010CC3EB9FF5F0EA9E42F0E99D42F0E80B
:0D015B009C45F06007CC4820E701B3EC2282
:10016800E9D2E7C933E833F892D5EDD2E7CD33ECDD
:0701780033FC5002B2D52256
:10017F00EC30E7100FBF000C0EBE00080DBD0004E1
:10018F000BEB6014A2D5EB13FCED92E7FD2274FF8D
:10019F00FCFDFEFF22E480F8A2D574FF13FC7D80E6
:0301AF00E480EFFA
:00000001FF
